{
  "_format": "hh-sol-artifact-1",
  "contractName": "TokenExchange",
  "sourceName": "contracts/exchange.sol",
  "abi": [
    {
      "inputs": [],
      "stateMutability": "nonpayable",
      "type": "constructor"
    },
    {
      "anonymous": false,
      "inputs": [
        {
          "indexed": true,
          "internalType": "address",
          "name": "previousOwner",
          "type": "address"
        },
        {
          "indexed": true,
          "internalType": "address",
          "name": "newOwner",
          "type": "address"
        }
      ],
      "name": "OwnershipTransferred",
      "type": "event"
    },
    {
      "inputs": [
        {
          "internalType": "uint256",
          "name": "max_exchange_rate",
          "type": "uint256"
        },
        {
          "internalType": "uint256",
          "name": "min_exchange_rate",
          "type": "uint256"
        }
      ],
      "name": "addLiquidity",
      "outputs": [],
      "stateMutability": "payable",
      "type": "function"
    },
    {
      "inputs": [
        {
          "internalType": "uint256",
          "name": "amountTokens",
          "type": "uint256"
        }
      ],
      "name": "createPool",
      "outputs": [],
      "stateMutability": "payable",
      "type": "function"
    },
    {
      "inputs": [],
      "name": "exchange_name",
      "outputs": [
        {
          "internalType": "string",
          "name": "",
          "type": "string"
        }
      ],
      "stateMutability": "view",
      "type": "function"
    },
    {
      "inputs": [],
      "name": "getSwapFee",
      "outputs": [
        {
          "internalType": "uint256",
          "name": "",
          "type": "uint256"
        },
        {
          "internalType": "uint256",
          "name": "",
          "type": "uint256"
        }
      ],
      "stateMutability": "view",
      "type": "function"
    },
    {
      "inputs": [],
      "name": "owner",
      "outputs": [
        {
          "internalType": "address",
          "name": "",
          "type": "address"
        }
      ],
      "stateMutability": "view",
      "type": "function"
    },
    {
      "inputs": [
        {
          "internalType": "uint256",
          "name": "max_exchange_rate",
          "type": "uint256"
        },
        {
          "internalType": "uint256",
          "name": "min_exchange_rate",
          "type": "uint256"
        }
      ],
      "name": "removeAllLiquidity",
      "outputs": [],
      "stateMutability": "payable",
      "type": "function"
    },
    {
      "inputs": [
        {
          "internalType": "uint256",
          "name": "amountETH",
          "type": "uint256"
        },
        {
          "internalType": "uint256",
          "name": "max_exchange_rate",
          "type": "uint256"
        },
        {
          "internalType": "uint256",
          "name": "min_exchange_rate",
          "type": "uint256"
        }
      ],
      "name": "removeLiquidity",
      "outputs": [],
      "stateMutability": "payable",
      "type": "function"
    },
    {
      "inputs": [],
      "name": "renounceOwnership",
      "outputs": [],
      "stateMutability": "nonpayable",
      "type": "function"
    },
    {
      "inputs": [
        {
          "internalType": "uint256",
          "name": "max_exchange_rate",
          "type": "uint256"
        }
      ],
      "name": "swapETHForTokens",
      "outputs": [],
      "stateMutability": "payable",
      "type": "function"
    },
    {
      "inputs": [
        {
          "internalType": "uint256",
          "name": "amountTokens",
          "type": "uint256"
        },
        {
          "internalType": "uint256",
          "name": "max_exchange_rate",
          "type": "uint256"
        }
      ],
      "name": "swapTokensForETH",
      "outputs": [],
      "stateMutability": "payable",
      "type": "function"
    },
    {
      "inputs": [],
      "name": "token",
      "outputs": [
        {
          "internalType": "contract Token",
          "name": "",
          "type": "address"
        }
      ],
      "stateMutability": "view",
      "type": "function"
    },
    {
      "inputs": [
        {
          "internalType": "address",
          "name": "newOwner",
          "type": "address"
        }
      ],
      "name": "transferOwnership",
      "outputs": [],
      "stateMutability": "nonpayable",
      "type": "function"
    }
  ],
  "bytecode": "0x60806040526040518060400160405280600f81526020017f4353203235312045786368616e67650000000000000000000000000000000000815250600190816200004a919062000497565b50735fbdb2315678afecb367f032d93f642f64180aa3600260006101000a81548173ffffffffffffffffffffffffffffffffffffffff021916908373ffffffffffffffffffffffffffffffffffffffff160217905550600260009054906101000a900473ffffffffffffffffffffffffffffffffffffffff16600360006101000a81548173ffffffffffffffffffffffffffffffffffffffff021916908373ffffffffffffffffffffffffffffffffffffffff1602179055506000600455600060055561271060085560006009556000600a553480156200012a57600080fd5b506200014b6200013f6200015160201b60201c565b6200015960201b60201c565b6200057e565b600033905090565b60008060009054906101000a900473ffffffffffffffffffffffffffffffffffffffff169050816000806101000a81548173ffffffffffffffffffffffffffffffffffffffff021916908373ffffffffffffffffffffffffffffffffffffffff1602179055508173ffffffffffffffffffffffffffffffffffffffff168173ffffffffffffffffffffffffffffffffffffffff167f8be0079c531659141344cd1fd0a4f28419497f9722a3daafe3b4186f6b6457e060405160405180910390a35050565b600081519050919050565b7f4e487b7100000000000000000000000000000000000000000000000000000000600052604160045260246000fd5b7f4e487b7100000000000000000000000000000000000000000000000000000000600052602260045260246000fd5b600060028204905060018216806200029f57607f821691505b602082108103620002b557620002b462000257565b5b50919050565b60008190508160005260206000209050919050565b60006020601f8301049050919050565b600082821b905092915050565b6000600883026200031f7fffffffffffffffffffffffffffffffffffffffffffffffffffffffffffffffff82620002e0565b6200032b8683620002e0565b95508019841693508086168417925050509392505050565b6000819050919050565b6000819050919050565b600062000378620003726200036c8462000343565b6200034d565b62000343565b9050919050565b6000819050919050565b620003948362000357565b620003ac620003a3826200037f565b848454620002ed565b825550505050565b600090565b620003c3620003b4565b620003d081848462000389565b505050565b5b81811015620003f857620003ec600082620003b9565b600181019050620003d6565b5050565b601f82111562000447576200041181620002bb565b6200041c84620002d0565b810160208510156200042c578190505b620004446200043b85620002d0565b830182620003d5565b50505b505050565b600082821c905092915050565b60006200046c600019846008026200044c565b1980831691505092915050565b600062000487838362000459565b9150826002028217905092915050565b620004a2826200021d565b67ffffffffffffffff811115620004be57620004bd62000228565b5b620004ca825462000286565b620004d7828285620003fc565b600060209050601f8311600181146200050f5760008415620004fa578287015190505b62000506858262000479565b86555062000576565b601f1984166200051f86620002bb565b60005b82811015620005495784890151825560018201915060208501945060208101905062000522565b8683101562000569578489015162000565601f89168262000459565b8355505b6001600288020188555050505b505050505050565b61247a806200058e6000396000f3fe6080604052600436106100a75760003560e01c80639cd441da116100645780639cd441da1461015e578063a22280a61461017a578063d4cadf6814610196578063f2fde38b146101c2578063f694f7d1146101eb578063fc0c546a14610216576100a7565b80632eab2841146100ac57806358ad6de4146100c8578063715018a6146100e45780638259e6a0146100fb578063857620e1146101175780638da5cb5b14610133575b600080fd5b6100c660048036038101906100c191906117c3565b610241565b005b6100e260048036038101906100dd91906117f0565b610244565b005b3480156100f057600080fd5b506100f961033e565b005b610115600480360381019061011091906117c3565b610352565b005b610131600480360381019061012c9190611830565b610712565b005b34801561013f57600080fd5b5061014861098b565b60405161015591906118c4565b60405180910390f35b610178600480360381019061017391906117f0565b6109b4565b005b610194600480360381019061018f91906117f0565b610db0565b005b3480156101a257600080fd5b506101ab610e92565b6040516101b99291906118ee565b60405180910390f35b3480156101ce57600080fd5b506101e960048036038101906101e49190611943565b610ea3565b005b3480156101f757600080fd5b50610200610f26565b60405161020d9190611a00565b60405180910390f35b34801561022257600080fd5b5061022b610fb4565b6040516102389190611a81565b60405180910390f35b50565b61029b600554600660003373ffffffffffffffffffffffffffffffffffffffff1673ffffffffffffffffffffffffffffffffffffffff168152602001908152602001600020546102949190611acb565b8383610712565b60005b600780549050811015610339573373ffffffffffffffffffffffffffffffffffffffff16600782815481106102d6576102d5611b0d565b5b9060005260206000200160009054906101000a900473ffffffffffffffffffffffffffffffffffffffff1673ffffffffffffffffffffffffffffffffffffffff16036103265761032581610fda565b5b808061033190611b3c565b91505061029e565b505050565b610346611117565b6103506000611195565b565b61035a611117565b6103986040518060400160405280600581526020017f68656c6c6f000000000000000000000000000000000000000000000000000000815250611259565b6103b96040518060600160405280603381526020016123c660339139611259565b6000600454146103fe576040517f08c379a00000000000000000000000000000000000000000000000000000000081526004016103f590611bd0565b60405180910390fd5b600060055414610443576040517f08c379a000000000000000000000000000000000000000000000000000000000815260040161043a90611c3c565b60405180910390fd5b60003411610486576040517f08c379a000000000000000000000000000000000000000000000000000000000815260040161047d90611ca8565b60405180910390fd5b6000600360009054906101000a900473ffffffffffffffffffffffffffffffffffffffff1673ffffffffffffffffffffffffffffffffffffffff166370a08231336040518263ffffffff1660e01b81526004016104e391906118c4565b602060405180830381865afa158015610500573d6000803e3d6000fd5b505050506040513d601f19601f820116820180604052508101906105249190611cdd565b905080821115610569576040517f08c379a000000000000000000000000000000000000000000000000000000000815260040161056090611d7c565b60405180910390fd5b600082116105ac576040517f08c379a00000000000000000000000000000000000000000000000000000000081526004016105a390611de8565b60405180910390fd5b600360009054906101000a900473ffffffffffffffffffffffffffffffffffffffff1673ffffffffffffffffffffffffffffffffffffffff166323b872dd3330856040518463ffffffff1660e01b815260040161060b93929190611e08565b6020604051808303816000875af115801561062a573d6000803e3d6000fd5b505050506040513d601f19601f8201168201806040525081019061064e9190611e77565b50600360009054906101000a900473ffffffffffffffffffffffffffffffffffffffff1673ffffffffffffffffffffffffffffffffffffffff166370a08231306040518263ffffffff1660e01b81526004016106aa91906118c4565b602060405180830381865afa1580156106c7573d6000803e3d6000fd5b505050506040513d601f19601f820116820180604052508101906106eb9190611cdd565b600481905550346005819055506005546004546107089190611acb565b600b819055505050565b60006005546004546107249190611ed3565b8461072f9190611acb565b905060006005546004546107439190611ed3565b90506000856005546107559190611f04565b11610795576040517f08c379a000000000000000000000000000000000000000000000000000000000815260040161078c90611faa565b60405180910390fd5b6000826004546107a59190611f04565b116107e5576040517f08c379a00000000000000000000000000000000000000000000000000000000081526004016107dc90611faa565b60405180910390fd5b600085600554600660003373ffffffffffffffffffffffffffffffffffffffff1673ffffffffffffffffffffffffffffffffffffffff168152602001908152602001600020546108359190611acb565b61083f9190611f04565b1161084957600080fd5b838110801561085757508281115b15610984573373ffffffffffffffffffffffffffffffffffffffff166108fc869081150290604051600060405180830381858888f193505050501580156108a2573d6000803e3d6000fd5b50600360009054906101000a900473ffffffffffffffffffffffffffffffffffffffff1673ffffffffffffffffffffffffffffffffffffffff166323b872dd3033856040518463ffffffff1660e01b815260040161090293929190611e08565b6020604051808303816000875af1158015610921573d6000803e3d6000fd5b505050506040513d601f19601f820116820180604052508101906109459190611e77565b50600060055490508560055461095b9190611f04565b6005819055508260045461096f9190611f04565b60048190555061098286338360006112f2565b505b5050505050565b60008060009054906101000a900473ffffffffffffffffffffffffffffffffffffffff16905090565b6109bd34611622565b6109de6040518060600160405280602a81526020016123f9602a9139611259565b60003411610a21576040517f08c379a0000000000000000000000000000000000000000000000000000000008152600401610a189061203c565b60405180910390fd5b6000600554600454610a339190611ed3565b34610a3e9190611acb565b90506000600554600454610a529190611ed3565b905081600360009054906101000a900473ffffffffffffffffffffffffffffffffffffffff1673ffffffffffffffffffffffffffffffffffffffff166370a08231336040518263ffffffff1660e01b8152600401610ab091906118c4565b602060405180830381865afa158015610acd573d6000803e3d6000fd5b505050506040513d601f19601f82011682018060405250810190610af19190611cdd565b1015610b32576040517f08c379a0000000000000000000000000000000000000000000000000000000008152600401610b29906120a8565b60405180910390fd5b8381108015610b4057508281115b15610daa57610c0260405180606001604052806023815260200161236760239139600360009054906101000a900473ffffffffffffffffffffffffffffffffffffffff1673ffffffffffffffffffffffffffffffffffffffff166370a08231306040518263ffffffff1660e01b8152600401610bbc91906118c4565b602060405180830381865afa158015610bd9573d6000803e3d6000fd5b505050506040513d601f19601f82011682018060405250810190610bfd9190611cdd565b6116bb565b600360009054906101000a900473ffffffffffffffffffffffffffffffffffffffff1673ffffffffffffffffffffffffffffffffffffffff166323b872dd3330856040518463ffffffff1660e01b8152600401610c6193929190611e08565b6020604051808303816000875af1158015610c80573d6000803e3d6000fd5b505050506040513d601f19601f82011682018060405250810190610ca49190611e77565b50610d6260405180606001604052806022815260200161242360229139600360009054906101000a900473ffffffffffffffffffffffffffffffffffffffff1673ffffffffffffffffffffffffffffffffffffffff166370a08231306040518263ffffffff1660e01b8152600401610d1c91906118c4565b602060405180830381865afa158015610d39573d6000803e3d6000fd5b505050506040513d601f19601f82011682018060405250810190610d5d9190611cdd565b6116bb565b600060055490503460056000828254610d7b91906120c8565b925050819055508260046000828254610d9491906120c8565b92505081905550610da834338360016112f2565b505b50505050565b600360009054906101000a900473ffffffffffffffffffffffffffffffffffffffff1673ffffffffffffffffffffffffffffffffffffffff166370a08231336040518263ffffffff1660e01b8152600401610e0b91906118c4565b602060405180830381865afa158015610e28573d6000803e3d6000fd5b505050506040513d601f19601f82011682018060405250810190610e4c9190611cdd565b821015610e8e576040517f08c379a0000000000000000000000000000000000000000000000000000000008152600401610e85906120a8565b60405180910390fd5b5050565b600080600954600a54915091509091565b610eab611117565b600073ffffffffffffffffffffffffffffffffffffffff168173ffffffffffffffffffffffffffffffffffffffff1603610f1a576040517f08c379a0000000000000000000000000000000000000000000000000000000008152600401610f119061216e565b60405180910390fd5b610f2381611195565b50565b60018054610f33906121bd565b80601f0160208091040260200160405190810160405280929190818152602001828054610f5f906121bd565b8015610fac5780601f10610f8157610100808354040283529160200191610fac565b820191906000526020600020905b815481529060010190602001808311610f8f57829003601f168201915b505050505081565b600360009054906101000a900473ffffffffffffffffffffffffffffffffffffffff1681565b6007805490508110611021576040517f08c379a000000000000000000000000000000000000000000000000000000000815260040161101890612260565b60405180910390fd5b600760016007805490506110359190611f04565b8154811061104657611045611b0d565b5b9060005260206000200160009054906101000a900473ffffffffffffffffffffffffffffffffffffffff166007828154811061108557611084611b0d565b5b9060005260206000200160006101000a81548173ffffffffffffffffffffffffffffffffffffffff021916908373ffffffffffffffffffffffffffffffffffffffff16021790555060078054806110df576110de612280565b5b6001900381819060005260206000200160006101000a81549073ffffffffffffffffffffffffffffffffffffffff0219169055905550565b61111f611757565b73ffffffffffffffffffffffffffffffffffffffff1661113d61098b565b73ffffffffffffffffffffffffffffffffffffffff1614611193576040517f08c379a000000000000000000000000000000000000000000000000000000000815260040161118a906122fb565b60405180910390fd5b565b60008060009054906101000a900473ffffffffffffffffffffffffffffffffffffffff169050816000806101000a81548173ffffffffffffffffffffffffffffffffffffffff021916908373ffffffffffffffffffffffffffffffffffffffff1602179055508173ffffffffffffffffffffffffffffffffffffffff168173ffffffffffffffffffffffffffffffffffffffff167f8be0079c531659141344cd1fd0a4f28419497f9722a3daafe3b4186f6b6457e060405160405180910390a35050565b6112ef8160405160240161126d9190611a00565b6040516020818303038152906040527f41304fac000000000000000000000000000000000000000000000000000000007bffffffffffffffffffffffffffffffffffffffffffffffffffffffff19166020820180517bffffffffffffffffffffffffffffffffffffffffffffffffffffffff838183161783525050505061175f565b50565b6113136040518060600160405280603c815260200161238a603c9139611259565b6000600660008573ffffffffffffffffffffffffffffffffffffffff1673ffffffffffffffffffffffffffffffffffffffff16815260200190815260200160002054036113be576007839080600181540180825580915050600190039060005260206000200160009091909190916101000a81548173ffffffffffffffffffffffffffffffffffffffff021916908373ffffffffffffffffffffffffffffffffffffffff1602179055505b60005b60078054905081101561161b576000600782815481106113e4576113e3611b0d565b5b9060005260206000200160009054906101000a900473ffffffffffffffffffffffffffffffffffffffff169050600084600660008473ffffffffffffffffffffffffffffffffffffffff1673ffffffffffffffffffffffffffffffffffffffff1681526020019081526020016000205461145e9190611acb565b90508573ffffffffffffffffffffffffffffffffffffffff166007848154811061148b5761148a611b0d565b5b9060005260206000200160009054906101000a900473ffffffffffffffffffffffffffffffffffffffff1673ffffffffffffffffffffffffffffffffffffffff16036115b457831561154557600554600854886114e89190611acb565b826114f391906120c8565b6114fd9190611ed3565b600660008873ffffffffffffffffffffffffffffffffffffffff1673ffffffffffffffffffffffffffffffffffffffff168152602001908152602001600020819055506115af565b600554600854886115569190611acb565b826115619190611f04565b61156b9190611ed3565b600660008873ffffffffffffffffffffffffffffffffffffffff1673ffffffffffffffffffffffffffffffffffffffff168152602001908152602001600020819055505b611606565b600554816115c29190611ed3565b600660008473ffffffffffffffffffffffffffffffffffffffff1673ffffffffffffffffffffffffffffffffffffffff168152602001908152602001600020819055505b5050808061161390611b3c565b9150506113c1565b5050505050565b6116b881604051602401611636919061231b565b6040516020818303038152906040527ff82c50f1000000000000000000000000000000000000000000000000000000007bffffffffffffffffffffffffffffffffffffffffffffffffffffffff19166020820180517bffffffffffffffffffffffffffffffffffffffffffffffffffffffff838183161783525050505061175f565b50565b61175382826040516024016116d1929190612336565b6040516020818303038152906040527fb60e72cc000000000000000000000000000000000000000000000000000000007bffffffffffffffffffffffffffffffffffffffffffffffffffffffff19166020820180517bffffffffffffffffffffffffffffffffffffffffffffffffffffffff838183161783525050505061175f565b5050565b600033905090565b60008151905060006a636f6e736f6c652e6c6f679050602083016000808483855afa5050505050565b600080fd5b6000819050919050565b6117a08161178d565b81146117ab57600080fd5b50565b6000813590506117bd81611797565b92915050565b6000602082840312156117d9576117d8611788565b5b60006117e7848285016117ae565b91505092915050565b6000806040838503121561180757611806611788565b5b6000611815858286016117ae565b9250506020611826858286016117ae565b9150509250929050565b60008060006060848603121561184957611848611788565b5b6000611857868287016117ae565b9350506020611868868287016117ae565b9250506040611879868287016117ae565b9150509250925092565b600073ffffffffffffffffffffffffffffffffffffffff82169050919050565b60006118ae82611883565b9050919050565b6118be816118a3565b82525050565b60006020820190506118d960008301846118b5565b92915050565b6118e88161178d565b82525050565b600060408201905061190360008301856118df565b61191060208301846118df565b9392505050565b611920816118a3565b811461192b57600080fd5b50565b60008135905061193d81611917565b92915050565b60006020828403121561195957611958611788565b5b60006119678482850161192e565b91505092915050565b600081519050919050565b600082825260208201905092915050565b60005b838110156119aa57808201518184015260208101905061198f565b60008484015250505050565b6000601f19601f8301169050919050565b60006119d282611970565b6119dc818561197b565b93506119ec81856020860161198c565b6119f5816119b6565b840191505092915050565b60006020820190508181036000830152611a1a81846119c7565b905092915050565b6000819050919050565b6000611a47611a42611a3d84611883565b611a22565b611883565b9050919050565b6000611a5982611a2c565b9050919050565b6000611a6b82611a4e565b9050919050565b611a7b81611a60565b82525050565b6000602082019050611a966000830184611a72565b92915050565b7f4e487b7100000000000000000000000000000000000000000000000000000000600052601160045260246000fd5b6000611ad68261178d565b9150611ae18361178d565b9250828202611aef8161178d565b91508282048414831517611b0657611b05611a9c565b5b5092915050565b7f4e487b7100000000000000000000000000000000000000000000000000000000600052603260045260246000fd5b6000611b478261178d565b91507fffffffffffffffffffffffffffffffffffffffffffffffffffffffffffffffff8203611b7957611b78611a9c565b5b600182019050919050565b7f546f6b656e20726573657276657320776173206e6f7420300000000000000000600082015250565b6000611bba60188361197b565b9150611bc582611b84565b602082019050919050565b60006020820190508181036000830152611be981611bad565b9050919050565b7f45544820726573657276657320776173206e6f7420302e000000000000000000600082015250565b6000611c2660178361197b565b9150611c3182611bf0565b602082019050919050565b60006020820190508181036000830152611c5581611c19565b9050919050565b7f4e6565642065746820746f2063726561746520706f6f6c2e0000000000000000600082015250565b6000611c9260188361197b565b9150611c9d82611c5c565b602082019050919050565b60006020820190508181036000830152611cc181611c85565b9050919050565b600081519050611cd781611797565b92915050565b600060208284031215611cf357611cf2611788565b5b6000611d0184828501611cc8565b91505092915050565b7f4e6f74206861766520656e6f75676820746f6b656e7320746f2063726561746560008201527f2074686520706f6f6c0000000000000000000000000000000000000000000000602082015250565b6000611d6660298361197b565b9150611d7182611d0a565b604082019050919050565b60006020820190508181036000830152611d9581611d59565b9050919050565b7f4e65656420746f6b656e7320746f2063726561746520706f6f6c2e0000000000600082015250565b6000611dd2601b8361197b565b9150611ddd82611d9c565b602082019050919050565b60006020820190508181036000830152611e0181611dc5565b9050919050565b6000606082019050611e1d60008301866118b5565b611e2a60208301856118b5565b611e3760408301846118df565b949350505050565b60008115159050919050565b611e5481611e3f565b8114611e5f57600080fd5b50565b600081519050611e7181611e4b565b92915050565b600060208284031215611e8d57611e8c611788565b5b6000611e9b84828501611e62565b91505092915050565b7f4e487b7100000000000000000000000000000000000000000000000000000000600052601260045260246000fd5b6000611ede8261178d565b9150611ee98361178d565b925082611ef957611ef8611ea4565b5b828204905092915050565b6000611f0f8261178d565b9150611f1a8361178d565b9250828203905081811115611f3257611f31611a9c565b5b92915050565b7f43616e6e6f74206465706c65746520746865206c697175696469747920706f6f60008201527f6c20746f20300000000000000000000000000000000000000000000000000000602082015250565b6000611f9460268361197b565b9150611f9f82611f38565b604082019050919050565b60006020820190508181036000830152611fc381611f87565b9050919050565b7f4d75737420616464206120706f73697469766520616d6f756e74206f66206c6960008201527f717569646974792e000000000000000000000000000000000000000000000000602082015250565b600061202660288361197b565b915061203182611fca565b604082019050919050565b6000602082019050818103600083015261205581612019565b9050919050565b7f4e6f7420656e6f75676820746f6b656e73000000000000000000000000000000600082015250565b600061209260118361197b565b915061209d8261205c565b602082019050919050565b600060208201905081810360008301526120c181612085565b9050919050565b60006120d38261178d565b91506120de8361178d565b92508282019050808211156120f6576120f5611a9c565b5b92915050565b7f4f776e61626c653a206e6577206f776e657220697320746865207a65726f206160008201527f6464726573730000000000000000000000000000000000000000000000000000602082015250565b600061215860268361197b565b9150612163826120fc565b604082019050919050565b600060208201905081810360008301526121878161214b565b9050919050565b7f4e487b7100000000000000000000000000000000000000000000000000000000600052602260045260246000fd5b600060028204905060018216806121d557607f821691505b6020821081036121e8576121e761218e565b5b50919050565b7f73706563696669656420696e646578206973206c6172676572207468616e207460008201527f6865206e756d626572206f66206c707300000000000000000000000000000000602082015250565b600061224a60308361197b565b9150612255826121ee565b604082019050919050565b600060208201905081810360008301526122798161223d565b9050919050565b7f4e487b7100000000000000000000000000000000000000000000000000000000600052603160045260246000fd5b7f4f776e61626c653a2063616c6c6572206973206e6f7420746865206f776e6572600082015250565b60006122e560208361197b565b91506122f0826122af565b602082019050919050565b60006020820190508181036000830152612314816122d8565b9050919050565b600060208201905061233060008301846118df565b92915050565b6000604082019050818103600083015261235081856119c7565b905061235f60208301846118df565b939250505056fe62616c616e6365206f6620636f6e7472616374204245464f5245207472616e7366657261646a757374204c49512050524f5649444552532054455354494e472a2a2a2a2a2a2a2a2a2a2a2a2a2a2a2a2a2a2a2a2a2a2a2a0a0a0a0a0a0a0a0a637265617465706f6f6f6c2054455354494e472a2a2a2a2a2a2a2a2a2a2a2a2a2a2a2a2a2a2a2a2a2a2a2a0a0a0a0a0a0a0a0a4d53472056414c5545202a2a2a2a2a2a2a2a2a2a2a2a2a2a2a2a2a2a2a2a2a2a2a2a0a0a0a0a0a0a0a0a62616c616e6365206f6620636f6e7472616374204146544552207472616e73666572a2646970667358221220930f1ee46daf8c10fa3d36e7eb66d6b6516e69a29dec25ab7cd1065831b5c65e64736f6c63430008110033",
  "linkReferences": {},
  "deployedLinkReferences": {}
}