{
  "_format": "hh-sol-artifact-1",
  "contractName": "TokenExchange",
  "sourceName": "contracts/exchange.sol",
  "abi": [
    {
      "inputs": [],
      "stateMutability": "nonpayable",
      "type": "constructor"
    },
    {
      "anonymous": false,
      "inputs": [
        {
          "indexed": true,
          "internalType": "address",
          "name": "previousOwner",
          "type": "address"
        },
        {
          "indexed": true,
          "internalType": "address",
          "name": "newOwner",
          "type": "address"
        }
      ],
      "name": "OwnershipTransferred",
      "type": "event"
    },
    {
      "inputs": [
        {
          "internalType": "uint256",
          "name": "max_exchange_rate",
          "type": "uint256"
        },
        {
          "internalType": "uint256",
          "name": "min_exchange_rate",
          "type": "uint256"
        }
      ],
      "name": "addLiquidity",
      "outputs": [],
      "stateMutability": "payable",
      "type": "function"
    },
    {
      "inputs": [
        {
          "internalType": "uint256",
          "name": "amountTokens",
          "type": "uint256"
        }
      ],
      "name": "createPool",
      "outputs": [],
      "stateMutability": "payable",
      "type": "function"
    },
    {
      "inputs": [],
      "name": "exchange_name",
      "outputs": [
        {
          "internalType": "string",
          "name": "",
          "type": "string"
        }
      ],
      "stateMutability": "view",
      "type": "function"
    },
    {
      "inputs": [],
      "name": "getSwapFee",
      "outputs": [
        {
          "internalType": "uint256",
          "name": "",
          "type": "uint256"
        },
        {
          "internalType": "uint256",
          "name": "",
          "type": "uint256"
        }
      ],
      "stateMutability": "view",
      "type": "function"
    },
    {
      "inputs": [],
      "name": "owner",
      "outputs": [
        {
          "internalType": "address",
          "name": "",
          "type": "address"
        }
      ],
      "stateMutability": "view",
      "type": "function"
    },
    {
      "inputs": [
        {
          "internalType": "uint256",
          "name": "max_exchange_rate",
          "type": "uint256"
        },
        {
          "internalType": "uint256",
          "name": "min_exchange_rate",
          "type": "uint256"
        }
      ],
      "name": "removeAllLiquidity",
      "outputs": [],
      "stateMutability": "payable",
      "type": "function"
    },
    {
      "inputs": [
        {
          "internalType": "uint256",
          "name": "amountETH",
          "type": "uint256"
        },
        {
          "internalType": "uint256",
          "name": "max_exchange_rate",
          "type": "uint256"
        },
        {
          "internalType": "uint256",
          "name": "min_exchange_rate",
          "type": "uint256"
        }
      ],
      "name": "removeLiquidity",
      "outputs": [],
      "stateMutability": "payable",
      "type": "function"
    },
    {
      "inputs": [],
      "name": "renounceOwnership",
      "outputs": [],
      "stateMutability": "nonpayable",
      "type": "function"
    },
    {
      "inputs": [
        {
          "internalType": "uint256",
          "name": "max_exchange_rate",
          "type": "uint256"
        }
      ],
      "name": "swapETHForTokens",
      "outputs": [],
      "stateMutability": "payable",
      "type": "function"
    },
    {
      "inputs": [
        {
          "internalType": "uint256",
          "name": "amountTokens",
          "type": "uint256"
        },
        {
          "internalType": "uint256",
          "name": "max_exchange_rate",
          "type": "uint256"
        }
      ],
      "name": "swapTokensForETH",
      "outputs": [],
      "stateMutability": "payable",
      "type": "function"
    },
    {
      "inputs": [],
      "name": "token",
      "outputs": [
        {
          "internalType": "contract Token",
          "name": "",
          "type": "address"
        }
      ],
      "stateMutability": "view",
      "type": "function"
    },
    {
      "inputs": [
        {
          "internalType": "address",
          "name": "newOwner",
          "type": "address"
        }
      ],
      "name": "transferOwnership",
      "outputs": [],
      "stateMutability": "nonpayable",
      "type": "function"
    }
  ],
  "bytecode": "0x60806040526040518060400160405280600f81526020017f4353203235312045786368616e67650000000000000000000000000000000000815250600190816200004a919062000497565b50735fbdb2315678afecb367f032d93f642f64180aa3600260006101000a81548173ffffffffffffffffffffffffffffffffffffffff021916908373ffffffffffffffffffffffffffffffffffffffff160217905550600260009054906101000a900473ffffffffffffffffffffffffffffffffffffffff16600360006101000a81548173ffffffffffffffffffffffffffffffffffffffff021916908373ffffffffffffffffffffffffffffffffffffffff1602179055506000600455600060055561271060085560006009556000600a553480156200012a57600080fd5b506200014b6200013f6200015160201b60201c565b6200015960201b60201c565b6200057e565b600033905090565b60008060009054906101000a900473ffffffffffffffffffffffffffffffffffffffff169050816000806101000a81548173ffffffffffffffffffffffffffffffffffffffff021916908373ffffffffffffffffffffffffffffffffffffffff1602179055508173ffffffffffffffffffffffffffffffffffffffff168173ffffffffffffffffffffffffffffffffffffffff167f8be0079c531659141344cd1fd0a4f28419497f9722a3daafe3b4186f6b6457e060405160405180910390a35050565b600081519050919050565b7f4e487b7100000000000000000000000000000000000000000000000000000000600052604160045260246000fd5b7f4e487b7100000000000000000000000000000000000000000000000000000000600052602260045260246000fd5b600060028204905060018216806200029f57607f821691505b602082108103620002b557620002b462000257565b5b50919050565b60008190508160005260206000209050919050565b60006020601f8301049050919050565b600082821b905092915050565b6000600883026200031f7fffffffffffffffffffffffffffffffffffffffffffffffffffffffffffffffff82620002e0565b6200032b8683620002e0565b95508019841693508086168417925050509392505050565b6000819050919050565b6000819050919050565b600062000378620003726200036c8462000343565b6200034d565b62000343565b9050919050565b6000819050919050565b620003948362000357565b620003ac620003a3826200037f565b848454620002ed565b825550505050565b600090565b620003c3620003b4565b620003d081848462000389565b505050565b5b81811015620003f857620003ec600082620003b9565b600181019050620003d6565b5050565b601f82111562000447576200041181620002bb565b6200041c84620002d0565b810160208510156200042c578190505b620004446200043b85620002d0565b830182620003d5565b50505b505050565b600082821c905092915050565b60006200046c600019846008026200044c565b1980831691505092915050565b600062000487838362000459565b9150826002028217905092915050565b620004a2826200021d565b67ffffffffffffffff811115620004be57620004bd62000228565b5b620004ca825462000286565b620004d7828285620003fc565b600060209050601f8311600181146200050f5760008415620004fa578287015190505b62000506858262000479565b86555062000576565b601f1984166200051f86620002bb565b60005b82811015620005495784890151825560018201915060208501945060208101905062000522565b8683101562000569578489015162000565601f89168262000459565b8355505b6001600288020188555050505b505050505050565b613648806200058e6000396000f3fe6080604052600436106100a75760003560e01c80639cd441da116100645780639cd441da1461015e578063a22280a61461017a578063d4cadf6814610196578063f2fde38b146101c2578063f694f7d1146101eb578063fc0c546a14610216576100a7565b80632eab2841146100ac57806358ad6de4146100c8578063715018a6146100e45780638259e6a0146100fb578063857620e1146101175780638da5cb5b14610133575b600080fd5b6100c660048036038101906100c1919061236a565b610241565b005b6100e260048036038101906100dd9190612397565b6105f0565b005b3480156100f057600080fd5b506100f96106f7565b005b6101156004803603810190610110919061236a565b61070b565b005b610131600480360381019061012c91906123d7565b610acb565b005b34801561013f57600080fd5b50610148610e6f565b604051610155919061246b565b60405180910390f35b61017860048036038101906101739190612397565b610e98565b005b610194600480360381019061018f9190612397565b611280565b005b3480156101a257600080fd5b506101ab6117fd565b6040516101b9929190612495565b60405180910390f35b3480156101ce57600080fd5b506101e960048036038101906101e491906124ea565b61180e565b005b3480156101f757600080fd5b50610200611891565b60405161020d91906125a7565b60405180910390f35b34801561022257600080fd5b5061022b61191f565b6040516102389190612628565b60405180910390f35b60003411610284576040517f08c379a000000000000000000000000000000000000000000000000000000000815260040161027b906126b5565b60405180910390fd5b60055434106102c8576040517f08c379a00000000000000000000000000000000000000000000000000000000081526004016102bf90612721565b60405180910390fd5b806005546004546102d9919061279f565b111561031a576040517f08c379a000000000000000000000000000000000000000000000000000000000815260040161031190612842565b60405180910390fd5b60006005546004543461032d9190612862565b610337919061279f565b9050600454811061037d576040517f08c379a000000000000000000000000000000000000000000000000000000000815260040161037490612916565b60405180910390fd5b61039f6040518060600160405280602f81526020016134a6602f913947611945565b61045c60405180606001604052806032815260200161344760329139600360009054906101000a900473ffffffffffffffffffffffffffffffffffffffff1673ffffffffffffffffffffffffffffffffffffffff166370a08231306040518263ffffffff1660e01b8152600401610416919061246b565b602060405180830381865afa158015610433573d6000803e3d6000fd5b505050506040513d601f19601f82011682018060405250810190610457919061294b565b611945565b600360009054906101000a900473ffffffffffffffffffffffffffffffffffffffff1673ffffffffffffffffffffffffffffffffffffffff1663a9059cbb33836040518363ffffffff1660e01b81526004016104b9929190612978565b6020604051808303816000875af11580156104d8573d6000803e3d6000fd5b505050506040513d601f19601f820116820180604052508101906104fc91906129d9565b506105ba6040518060600160405280603181526020016135e260319139600360009054906101000a900473ffffffffffffffffffffffffffffffffffffffff1673ffffffffffffffffffffffffffffffffffffffff166370a08231306040518263ffffffff1660e01b8152600401610574919061246b565b602060405180830381865afa158015610591573d6000803e3d6000fd5b505050506040513d601f19601f820116820180604052508101906105b5919061294b565b611945565b80600460008282546105cc9190612a06565b9250508190555034600560008282546105e59190612a3a565b925050819055505050565b610654600854600554600660003373ffffffffffffffffffffffffffffffffffffffff1673ffffffffffffffffffffffffffffffffffffffff168152602001908152602001600020546106439190612862565b61064d919061279f565b8383610acb565b60005b6007805490508110156106f2573373ffffffffffffffffffffffffffffffffffffffff166007828154811061068f5761068e612a6e565b5b9060005260206000200160009054906101000a900473ffffffffffffffffffffffffffffffffffffffff1673ffffffffffffffffffffffffffffffffffffffff16036106df576106de816119e1565b5b80806106ea90612a9d565b915050610657565b505050565b6106ff611b1e565b6107096000611b9c565b565b610713611b1e565b6107516040518060400160405280600581526020017f68656c6c6f000000000000000000000000000000000000000000000000000000815250611c60565b61077260405180606001604052806033815260200161358d60339139611c60565b6000600454146107b7576040517f08c379a00000000000000000000000000000000000000000000000000000000081526004016107ae90612b31565b60405180910390fd5b6000600554146107fc576040517f08c379a00000000000000000000000000000000000000000000000000000000081526004016107f390612b9d565b60405180910390fd5b6000341161083f576040517f08c379a000000000000000000000000000000000000000000000000000000000815260040161083690612c09565b60405180910390fd5b6000600360009054906101000a900473ffffffffffffffffffffffffffffffffffffffff1673ffffffffffffffffffffffffffffffffffffffff166370a08231336040518263ffffffff1660e01b815260040161089c919061246b565b602060405180830381865afa1580156108b9573d6000803e3d6000fd5b505050506040513d601f19601f820116820180604052508101906108dd919061294b565b905080821115610922576040517f08c379a000000000000000000000000000000000000000000000000000000000815260040161091990612c9b565b60405180910390fd5b60008211610965576040517f08c379a000000000000000000000000000000000000000000000000000000000815260040161095c90612d07565b60405180910390fd5b600360009054906101000a900473ffffffffffffffffffffffffffffffffffffffff1673ffffffffffffffffffffffffffffffffffffffff166323b872dd3330856040518463ffffffff1660e01b81526004016109c493929190612d27565b6020604051808303816000875af11580156109e3573d6000803e3d6000fd5b505050506040513d601f19601f82011682018060405250810190610a0791906129d9565b50600360009054906101000a900473ffffffffffffffffffffffffffffffffffffffff1673ffffffffffffffffffffffffffffffffffffffff166370a08231306040518263ffffffff1660e01b8152600401610a63919061246b565b602060405180830381865afa158015610a80573d6000803e3d6000fd5b505050506040513d601f19601f82011682018060405250810190610aa4919061294b565b60048190555034600581905550600554600454610ac19190612862565b600b819055505050565b600060055460045485610ade9190612862565b610ae8919061279f565b90506000600554600454610afc919061279f565b9050610b406040518060400160405280601381526020017f6669727374207375627472616374696f6e3a200000000000000000000000000081525086600554611cf9565b610b826040518060400160405280601481526020017f7365636f6e64207375627472616374696f6e3a2000000000000000000000000081525060045484611cf9565b8460055411610bc6576040517f08c379a0000000000000000000000000000000000000000000000000000000008152600401610bbd90612dd0565b60405180910390fd5b8160045411610c0a576040517f08c379a0000000000000000000000000000000000000000000000000000000008152600401610c0190612e62565b60405180910390fd5b610c8b6040518060400160405280601381526020017f747279696e6720746f2074616b65206f75743a00000000000000000000000000815250600660003373ffffffffffffffffffffffffffffffffffffffff1673ffffffffffffffffffffffffffffffffffffffff16815260200190815260200160002054600554611cf9565b84600554600660003373ffffffffffffffffffffffffffffffffffffffff1673ffffffffffffffffffffffffffffffffffffffff16815260200190815260200160002054610cd99190612862565b11610d19576040517f08c379a0000000000000000000000000000000000000000000000000000000008152600401610d1090612ef4565b60405180910390fd5b8381108015610d2757508281115b15610e68573373ffffffffffffffffffffffffffffffffffffffff166108fc869081150290604051600060405180830381858888f19350505050158015610d72573d6000803e3d6000fd5b50600360009054906101000a900473ffffffffffffffffffffffffffffffffffffffff1673ffffffffffffffffffffffffffffffffffffffff1663a9059cbb33846040518363ffffffff1660e01b8152600401610dd0929190612978565b6020604051808303816000875af1158015610def573d6000803e3d6000fd5b505050506040513d601f19601f82011682018060405250810190610e1391906129d9565b506000600554905085600554610e299190612a06565b60058190555082600454610e3d9190612a06565b600481905550600454600554610e539190612862565b600b81905550610e668633836000611d98565b505b5050505050565b60008060009054906101000a900473ffffffffffffffffffffffffffffffffffffffff16905090565b60003411610edb576040517f08c379a0000000000000000000000000000000000000000000000000000000008152600401610ed290612f86565b60405180910390fd5b6000600554600454610eed919061279f565b34610ef89190612862565b90506000600554600454610f0c919061279f565b905081600360009054906101000a900473ffffffffffffffffffffffffffffffffffffffff1673ffffffffffffffffffffffffffffffffffffffff166370a08231336040518263ffffffff1660e01b8152600401610f6a919061246b565b602060405180830381865afa158015610f87573d6000803e3d6000fd5b505050506040513d601f19601f82011682018060405250810190610fab919061294b565b1015610fec576040517f08c379a0000000000000000000000000000000000000000000000000000000008152600401610fe390612ff2565b60405180910390fd5b8381108015610ffa57508281115b1561127a576110bc60405180606001604052806023815260200161350960239139600360009054906101000a900473ffffffffffffffffffffffffffffffffffffffff1673ffffffffffffffffffffffffffffffffffffffff166370a08231306040518263ffffffff1660e01b8152600401611076919061246b565b602060405180830381865afa158015611093573d6000803e3d6000fd5b505050506040513d601f19601f820116820180604052508101906110b7919061294b565b611945565b600360009054906101000a900473ffffffffffffffffffffffffffffffffffffffff1673ffffffffffffffffffffffffffffffffffffffff166323b872dd3330856040518463ffffffff1660e01b815260040161111b93929190612d27565b6020604051808303816000875af115801561113a573d6000803e3d6000fd5b505050506040513d601f19601f8201168201806040525081019061115e91906129d9565b5061121c6040518060600160405280602281526020016135c060229139600360009054906101000a900473ffffffffffffffffffffffffffffffffffffffff1673ffffffffffffffffffffffffffffffffffffffff166370a08231306040518263ffffffff1660e01b81526004016111d6919061246b565b602060405180830381865afa1580156111f3573d6000803e3d6000fd5b505050506040513d601f19601f82011682018060405250810190611217919061294b565b611945565b6000600554905034600560008282546112359190612a3a565b92505081905550826004600082825461124e9190612a3a565b925050819055506004546005546112659190612862565b600b819055506112783433836001611d98565b505b50505050565b600082116112c3576040517f08c379a00000000000000000000000000000000000000000000000000000000081526004016112ba90613084565b60405180910390fd5b81600360009054906101000a900473ffffffffffffffffffffffffffffffffffffffff1673ffffffffffffffffffffffffffffffffffffffff166370a08231336040518263ffffffff1660e01b815260040161131f919061246b565b602060405180830381865afa15801561133c573d6000803e3d6000fd5b505050506040513d601f19601f82011682018060405250810190611360919061294b565b10156113a1576040517f08c379a000000000000000000000000000000000000000000000000000000000815260040161139890612ff2565b60405180910390fd5b60045482106113e5576040517f08c379a00000000000000000000000000000000000000000000000000000000081526004016113dc90612721565b60405180910390fd5b6000600454600554846113f89190612862565b611402919061279f565b90506114436040518060400160405280601681526020017f4551554956414c454e542045544820414d4f554e543a0000000000000000000081525082611945565b6005548110611487576040517f08c379a000000000000000000000000000000000000000000000000000000000815260040161147e90613116565b60405180910390fd5b6115446040518060600160405280603481526020016134d560349139600360009054906101000a900473ffffffffffffffffffffffffffffffffffffffff1673ffffffffffffffffffffffffffffffffffffffff166370a08231306040518263ffffffff1660e01b81526004016114fe919061246b565b602060405180830381865afa15801561151b573d6000803e3d6000fd5b505050506040513d601f19601f8201168201806040525081019061153f919061294b565b611945565b6115666040518060600160405280602e815260200161355f602e913947611945565b6115ab6040518060400160405280602081526020017f0a0a0a206574685f72657365727665732c20746f6b656e5f7265736572766573815250600554600454856121bd565b816004546005546115bc919061279f565b11156115fd576040517f08c379a00000000000000000000000000000000000000000000000000000000081526004016115f490612842565b60405180910390fd5b600360009054906101000a900473ffffffffffffffffffffffffffffffffffffffff1673ffffffffffffffffffffffffffffffffffffffff166323b872dd3330866040518463ffffffff1660e01b815260040161165c93929190612d27565b6020604051808303816000875af115801561167b573d6000803e3d6000fd5b505050506040513d601f19601f8201168201806040525081019061169f91906129d9565b503373ffffffffffffffffffffffffffffffffffffffff166108fc829081150290604051600060405180830381858888f193505050501580156116e6573d6000803e3d6000fd5b506117a460405180606001604052806033815260200161352c60339139600360009054906101000a900473ffffffffffffffffffffffffffffffffffffffff1673ffffffffffffffffffffffffffffffffffffffff166370a08231306040518263ffffffff1660e01b815260040161175e919061246b565b602060405180830381865afa15801561177b573d6000803e3d6000fd5b505050506040513d601f19601f8201168201806040525081019061179f919061294b565b611945565b6117c66040518060600160405280602d8152602001613479602d913947611945565b82600460008282546117d89190612a3a565b9250508190555080600560008282546117f19190612a06565b92505081905550505050565b600080600954600a54915091509091565b611816611b1e565b600073ffffffffffffffffffffffffffffffffffffffff168173ffffffffffffffffffffffffffffffffffffffff1603611885576040517f08c379a000000000000000000000000000000000000000000000000000000000815260040161187c906131a8565b60405180910390fd5b61188e81611b9c565b50565b6001805461189e906131f7565b80601f01602080910402602001604051908101604052809291908181526020018280546118ca906131f7565b80156119175780601f106118ec57610100808354040283529160200191611917565b820191906000526020600020905b8154815290600101906020018083116118fa57829003601f168201915b505050505081565b600360009054906101000a900473ffffffffffffffffffffffffffffffffffffffff1681565b6119dd828260405160240161195b929190613228565b6040516020818303038152906040527fb60e72cc000000000000000000000000000000000000000000000000000000007bffffffffffffffffffffffffffffffffffffffffffffffffffffffff19166020820180517bffffffffffffffffffffffffffffffffffffffffffffffffffffffff838183161783525050505061225f565b5050565b6007805490508110611a28576040517f08c379a0000000000000000000000000000000000000000000000000000000008152600401611a1f906132ca565b60405180910390fd5b60076001600780549050611a3c9190612a06565b81548110611a4d57611a4c612a6e565b5b9060005260206000200160009054906101000a900473ffffffffffffffffffffffffffffffffffffffff1660078281548110611a8c57611a8b612a6e565b5b9060005260206000200160006101000a81548173ffffffffffffffffffffffffffffffffffffffff021916908373ffffffffffffffffffffffffffffffffffffffff1602179055506007805480611ae657611ae56132ea565b5b6001900381819060005260206000200160006101000a81549073ffffffffffffffffffffffffffffffffffffffff0219169055905550565b611b26612288565b73ffffffffffffffffffffffffffffffffffffffff16611b44610e6f565b73ffffffffffffffffffffffffffffffffffffffff1614611b9a576040517f08c379a0000000000000000000000000000000000000000000000000000000008152600401611b9190613365565b60405180910390fd5b565b60008060009054906101000a900473ffffffffffffffffffffffffffffffffffffffff169050816000806101000a81548173ffffffffffffffffffffffffffffffffffffffff021916908373ffffffffffffffffffffffffffffffffffffffff1602179055508173ffffffffffffffffffffffffffffffffffffffff168173ffffffffffffffffffffffffffffffffffffffff167f8be0079c531659141344cd1fd0a4f28419497f9722a3daafe3b4186f6b6457e060405160405180910390a35050565b611cf681604051602401611c7491906125a7565b6040516020818303038152906040527f41304fac000000000000000000000000000000000000000000000000000000007bffffffffffffffffffffffffffffffffffffffffffffffffffffffff19166020820180517bffffffffffffffffffffffffffffffffffffffffffffffffffffffff838183161783525050505061225f565b50565b611d93838383604051602401611d1193929190613385565b6040516020818303038152906040527fca47c4eb000000000000000000000000000000000000000000000000000000007bffffffffffffffffffffffffffffffffffffffffffffffffffffffff19166020820180517bffffffffffffffffffffffffffffffffffffffffffffffffffffffff838183161783525050505061225f565b505050565b6000600660008573ffffffffffffffffffffffffffffffffffffffff1673ffffffffffffffffffffffffffffffffffffffff1681526020019081526020016000205403611e43576007839080600181540180825580915050600190039060005260206000200160009091909190916101000a81548173ffffffffffffffffffffffffffffffffffffffff021916908373ffffffffffffffffffffffffffffffffffffffff1602179055505b60005b6007805490508110156121b657600060078281548110611e6957611e68612a6e565b5b9060005260206000200160009054906101000a900473ffffffffffffffffffffffffffffffffffffffff169050600084600660008473ffffffffffffffffffffffffffffffffffffffff1673ffffffffffffffffffffffffffffffffffffffff16815260200190815260200160002054611ee39190612862565b90508573ffffffffffffffffffffffffffffffffffffffff1660078481548110611f1057611f0f612a6e565b5b9060005260206000200160009054906101000a900473ffffffffffffffffffffffffffffffffffffffff1673ffffffffffffffffffffffffffffffffffffffff160361214f578315612055576000600660008873ffffffffffffffffffffffffffffffffffffffff1673ffffffffffffffffffffffffffffffffffffffff16815260200190815260200160002054905060006008548783611fb19190612862565b611fbb919061279f565b905060008982611fcb9190612a3a565b905060008a89611fdb9190612a3a565b905060008160085484611fee9190612862565b611ff8919061279f565b9050612007868d600854612290565b80600660008d73ffffffffffffffffffffffffffffffffffffffff1673ffffffffffffffffffffffffffffffffffffffff16815260200190815260200160002081905550505050505061214a565b6000600660008873ffffffffffffffffffffffffffffffffffffffff1673ffffffffffffffffffffffffffffffffffffffff168152602001908152602001600020549050600060085487836120aa9190612862565b6120b4919061279f565b9050600089826120c49190612a06565b905060008a896120d49190612a06565b9050600081600854846120e79190612862565b6120f1919061279f565b9050612100868d600854612290565b80600660008d73ffffffffffffffffffffffffffffffffffffffff1673ffffffffffffffffffffffffffffffffffffffff1681526020019081526020016000208190555050505050505b6121a1565b6005548161215d919061279f565b600660008473ffffffffffffffffffffffffffffffffffffffff1673ffffffffffffffffffffffffffffffffffffffff168152602001908152602001600020819055505b505080806121ae90612a9d565b915050611e46565b5050505050565b612259848484846040516024016121d794939291906133c3565b6040516020818303038152906040527fa7a87853000000000000000000000000000000000000000000000000000000007bffffffffffffffffffffffffffffffffffffffffffffffffffffffff19166020820180517bffffffffffffffffffffffffffffffffffffffffffffffffffffffff838183161783525050505061225f565b50505050565b60008151905060006a636f6e736f6c652e6c6f679050602083016000808483855afa5050505050565b600033905090565b61232a8383836040516024016122a89392919061340f565b6040516020818303038152906040527fd1ed7a3c000000000000000000000000000000000000000000000000000000007bffffffffffffffffffffffffffffffffffffffffffffffffffffffff19166020820180517bffffffffffffffffffffffffffffffffffffffffffffffffffffffff838183161783525050505061225f565b505050565b600080fd5b6000819050919050565b61234781612334565b811461235257600080fd5b50565b6000813590506123648161233e565b92915050565b6000602082840312156123805761237f61232f565b5b600061238e84828501612355565b91505092915050565b600080604083850312156123ae576123ad61232f565b5b60006123bc85828601612355565b92505060206123cd85828601612355565b9150509250929050565b6000806000606084860312156123f0576123ef61232f565b5b60006123fe86828701612355565b935050602061240f86828701612355565b925050604061242086828701612355565b9150509250925092565b600073ffffffffffffffffffffffffffffffffffffffff82169050919050565b60006124558261242a565b9050919050565b6124658161244a565b82525050565b6000602082019050612480600083018461245c565b92915050565b61248f81612334565b82525050565b60006040820190506124aa6000830185612486565b6124b76020830184612486565b9392505050565b6124c78161244a565b81146124d257600080fd5b50565b6000813590506124e4816124be565b92915050565b600060208284031215612500576124ff61232f565b5b600061250e848285016124d5565b91505092915050565b600081519050919050565b600082825260208201905092915050565b60005b83811015612551578082015181840152602081019050612536565b60008484015250505050565b6000601f19601f8301169050919050565b600061257982612517565b6125838185612522565b9350612593818560208601612533565b61259c8161255d565b840191505092915050565b600060208201905081810360008301526125c1818461256e565b905092915050565b6000819050919050565b60006125ee6125e96125e48461242a565b6125c9565b61242a565b9050919050565b6000612600826125d3565b9050919050565b6000612612826125f5565b9050919050565b61262281612607565b82525050565b600060208201905061263d6000830184612619565b92915050565b7f4d7573742073776170206120706f736974697665206e6f6e2d7a65726f20616d60008201527f6f756e74206f662045544820666f7220746f6b656e7300000000000000000000602082015250565b600061269f603683612522565b91506126aa82612643565b604082019050919050565b600060208201905081810360008301526126ce81612692565b9050919050565b7f43616e6e6f74206465706c65746520706f6f6c206f6620746f6b656e73000000600082015250565b600061270b601d83612522565b9150612716826126d5565b602082019050919050565b6000602082019050818103600083015261273a816126fe565b9050919050565b7f4e487b7100000000000000000000000000000000000000000000000000000000600052601260045260246000fd5b7f4e487b7100000000000000000000000000000000000000000000000000000000600052601160045260246000fd5b60006127aa82612334565b91506127b583612334565b9250826127c5576127c4612741565b5b828204905092915050565b7f65786368616e6765207261746520686967686572207468616e206d617820616c60008201527f6c6f776564000000000000000000000000000000000000000000000000000000602082015250565b600061282c602583612522565b9150612837826127d0565b604082019050919050565b6000602082019050818103600083015261285b8161281f565b9050919050565b600061286d82612334565b915061287883612334565b925082820261288681612334565b9150828204841483151761289d5761289c612770565b5b5092915050565b7f63616e6e6f74206465706c65746520706f6f6c206f6620746f6b656e2072657360008201527f6572766573000000000000000000000000000000000000000000000000000000602082015250565b6000612900602583612522565b915061290b826128a4565b604082019050919050565b6000602082019050818103600083015261292f816128f3565b9050919050565b6000815190506129458161233e565b92915050565b6000602082840312156129615761296061232f565b5b600061296f84828501612936565b91505092915050565b600060408201905061298d600083018561245c565b61299a6020830184612486565b9392505050565b60008115159050919050565b6129b6816129a1565b81146129c157600080fd5b50565b6000815190506129d3816129ad565b92915050565b6000602082840312156129ef576129ee61232f565b5b60006129fd848285016129c4565b91505092915050565b6000612a1182612334565b9150612a1c83612334565b9250828203905081811115612a3457612a33612770565b5b92915050565b6000612a4582612334565b9150612a5083612334565b9250828201905080821115612a6857612a67612770565b5b92915050565b7f4e487b7100000000000000000000000000000000000000000000000000000000600052603260045260246000fd5b6000612aa882612334565b91507fffffffffffffffffffffffffffffffffffffffffffffffffffffffffffffffff8203612ada57612ad9612770565b5b600182019050919050565b7f546f6b656e20726573657276657320776173206e6f7420300000000000000000600082015250565b6000612b1b601883612522565b9150612b2682612ae5565b602082019050919050565b60006020820190508181036000830152612b4a81612b0e565b9050919050565b7f45544820726573657276657320776173206e6f7420302e000000000000000000600082015250565b6000612b87601783612522565b9150612b9282612b51565b602082019050919050565b60006020820190508181036000830152612bb681612b7a565b9050919050565b7f4e6565642065746820746f2063726561746520706f6f6c2e0000000000000000600082015250565b6000612bf3601883612522565b9150612bfe82612bbd565b602082019050919050565b60006020820190508181036000830152612c2281612be6565b9050919050565b7f4e6f74206861766520656e6f75676820746f6b656e7320746f2063726561746560008201527f2074686520706f6f6c0000000000000000000000000000000000000000000000602082015250565b6000612c85602983612522565b9150612c9082612c29565b604082019050919050565b60006020820190508181036000830152612cb481612c78565b9050919050565b7f4e65656420746f6b656e7320746f2063726561746520706f6f6c2e0000000000600082015250565b6000612cf1601b83612522565b9150612cfc82612cbb565b602082019050919050565b60006020820190508181036000830152612d2081612ce4565b9050919050565b6000606082019050612d3c600083018661245c565b612d49602083018561245c565b612d566040830184612486565b949350505050565b7f43616e6e6f74206465706c65746520616c6c204554482066726f6d206c69717560008201527f696469747920706f6f6c00000000000000000000000000000000000000000000602082015250565b6000612dba602a83612522565b9150612dc582612d5e565b604082019050919050565b60006020820190508181036000830152612de981612dad565b9050919050565b7f43616e6e6f74206465706c65746520616c6c20746f6b656e732066726f6d206c60008201527f697175696469747920706f6f6c00000000000000000000000000000000000000602082015250565b6000612e4c602d83612522565b9150612e5782612df0565b604082019050919050565b60006020820190508181036000830152612e7b81612e3f565b9050919050565b7f4c5020747279696e6720746f2074616b65206d6f7265207468616e207468657960008201527f2061726520656e7469746c656420746f00000000000000000000000000000000602082015250565b6000612ede603083612522565b9150612ee982612e82565b604082019050919050565b60006020820190508181036000830152612f0d81612ed1565b9050919050565b7f4d75737420616464206120706f73697469766520616d6f756e74206f66206c6960008201527f717569646974792e000000000000000000000000000000000000000000000000602082015250565b6000612f70602883612522565b9150612f7b82612f14565b604082019050919050565b60006020820190508181036000830152612f9f81612f63565b9050919050565b7f4e6f7420656e6f75676820746f6b656e73000000000000000000000000000000600082015250565b6000612fdc601183612522565b9150612fe782612fa6565b602082019050919050565b6000602082019050818103600083015261300b81612fcf565b9050919050565b7f4d7573742073776170206120706f736974697665206e6f6e2d7a65726f20616d60008201527f6f756e74206f6620746f6b656e7320666f722045544800000000000000000000602082015250565b600061306e603683612522565b915061307982613012565b604082019050919050565b6000602082019050818103600083015261309d81613061565b9050919050565b7f63616e6e6f74206465706c65746520706f6f6c206f662045544820726573657260008201527f7665730000000000000000000000000000000000000000000000000000000000602082015250565b6000613100602383612522565b915061310b826130a4565b604082019050919050565b6000602082019050818103600083015261312f816130f3565b9050919050565b7f4f776e61626c653a206e6577206f776e657220697320746865207a65726f206160008201527f6464726573730000000000000000000000000000000000000000000000000000602082015250565b6000613192602683612522565b915061319d82613136565b604082019050919050565b600060208201905081810360008301526131c181613185565b9050919050565b7f4e487b7100000000000000000000000000000000000000000000000000000000600052602260045260246000fd5b6000600282049050600182168061320f57607f821691505b602082108103613222576132216131c8565b5b50919050565b60006040820190508181036000830152613242818561256e565b90506132516020830184612486565b9392505050565b7f73706563696669656420696e646578206973206c6172676572207468616e207460008201527f6865206e756d626572206f66206c707300000000000000000000000000000000602082015250565b60006132b4603083612522565b91506132bf82613258565b604082019050919050565b600060208201905081810360008301526132e3816132a7565b9050919050565b7f4e487b7100000000000000000000000000000000000000000000000000000000600052603160045260246000fd5b7f4f776e61626c653a2063616c6c6572206973206e6f7420746865206f776e6572600082015250565b600061334f602083612522565b915061335a82613319565b602082019050919050565b6000602082019050818103600083015261337e81613342565b9050919050565b6000606082019050818103600083015261339f818661256e565b90506133ae6020830185612486565b6133bb6040830184612486565b949350505050565b600060808201905081810360008301526133dd818761256e565b90506133ec6020830186612486565b6133f96040830185612486565b6134066060830184612486565b95945050505050565b60006060820190506134246000830186612486565b6134316020830185612486565b61343e6040830184612486565b94935050505056fe546f6b656e2076616c7565206f66207468697320636f6e7472616374206265666f72652073656e64696e6720746f6b656e3a4554482076616c7565206f66207468697320636f6e74726163742061667465722073656e64696e67204554483a4554482076616c7565206f66207468697320636f6e747261637420616674657220726563656976696e67204554483a546f6b656e2076616c7565206f66207468697320636f6e7472616374206265666f726520726563656976696e6720746f6b656e3a62616c616e6365206f6620636f6e7472616374204245464f5245207472616e73666572546f6b656e2076616c7565206f66207468697320636f6e747261637420616674657220726563656976696e6720746f6b656e3a4554482076616c7565206f66207468697320636f6e7472616374206265666f72652073656e64696e67204554483a637265617465706f6f6f6c2054455354494e472a2a2a2a2a2a2a2a2a2a2a2a2a2a2a2a2a2a2a2a2a2a2a2a0a0a0a0a0a0a0a0a62616c616e6365206f6620636f6e7472616374204146544552207472616e73666572546f6b656e2076616c7565206f66207468697320636f6e74726163742061667465722073656e64696e6720746f6b656e3aa2646970667358221220d4cf77d000d99cb4f80778d1a9355105b6820c9b98b92522027df5a40fd0f7fc64736f6c63430008110033",
  "linkReferences": {},
  "deployedLinkReferences": {}
}